{
  "abi": [
    {
      "inputs": [
        {
          "internalType": "bytes",
          "name": "_b",
          "type": "bytes"
        }
      ],
      "name": "decodeInt",
      "outputs": [
        {
          "internalType": "uint256",
          "name": "a",
          "type": "uint256"
        }
      ],
      "stateMutability": "pure",
      "type": "function"
    },
    {
      "inputs": [
        {
          "internalType": "bytes",
          "name": "_a",
          "type": "bytes"
        }
      ],
      "name": "decodeIntBool",
      "outputs": [
        {
          "internalType": "uint256",
          "name": "i",
          "type": "uint256"
        },
        {
          "internalType": "bool",
          "name": "j",
          "type": "bool"
        }
      ],
      "stateMutability": "pure",
      "type": "function"
    },
    {
      "inputs": [
        {
          "internalType": "uint256",
          "name": "_i",
          "type": "uint256"
        }
      ],
      "name": "encodeInt",
      "outputs": [
        {
          "internalType": "bytes",
          "name": "",
          "type": "bytes"
        }
      ],
      "stateMutability": "pure",
      "type": "function"
    },
    {
      "inputs": [
        {
          "internalType": "uint256",
          "name": "_i",
          "type": "uint256"
        },
        {
          "internalType": "bool",
          "name": "_j",
          "type": "bool"
        }
      ],
      "name": "encodeIntBool",
      "outputs": [
        {
          "internalType": "bytes",
          "name": "",
          "type": "bytes"
        }
      ],
      "stateMutability": "pure",
      "type": "function"
    },
    {
      "inputs": [],
      "name": "get",
      "outputs": [
        {
          "internalType": "bytes12",
          "name": "",
          "type": "bytes12"
        },
        {
          "internalType": "bytes32",
          "name": "",
          "type": "bytes32"
        }
      ],
      "stateMutability": "pure",
      "type": "function"
    }
  ],
  "bytecode": {
    "object": "0x608060405234801561001057600080fd5b5061049e806100206000396000f3fe608060405234801561001057600080fd5b50600436106100575760003560e01c806309ef9ac21461005c5780631dadafe51461008557806321fc0a5d14610098578063582b5656146100c05780636d4ce63c146100e1575b600080fd5b61006f61006a366004610263565b610109565b60405161007c91906102ac565b60405180910390f35b61006f6100933660046102f0565b610134565b6100ab6100a6366004610336565b61016b565b6040805192835290151560208301520161007c565b6100d36100ce366004610336565b61018c565b60405190815260200161007c565b6100e96101a8565b604080516001600160a01b0319909316835260208301919091520161007c565b60608160405160200161011e91815260200190565b6040516020818303038152906040529050919050565b606082826040516020016101549291909182521515602082015260400190565b604051602081830303815290604052905092915050565b6000808280602001905181019061018291906103e7565b9094909350915050565b6000818060200190518101906101a2919061040c565b92915050565b6000806000604051806040016040528060018152602001603160f81b815250905060007363cddcf737f3ad13492e8fa59c2d923c9cfaef1490506000826040516020016101f59190610425565b60408051601f1981840301815282825280516020918201206bffffffffffffffffffffffff19606087901b16918401919091526001600160a01b03198116603484015292506000910160405160208183030381529060405261025690610441565b9196919550909350505050565b60006020828403121561027557600080fd5b5035919050565b60005b8381101561029757818101518382015260200161027f565b838111156102a6576000848401525b50505050565b60208152600082518060208401526102cb81604085016020870161027c565b601f01601f19169190910160400192915050565b80151581146102ed57600080fd5b50565b6000806040838503121561030357600080fd5b823591506020830135610315816102df565b809150509250929050565b634e487b7160e01b600052604160045260246000fd5b60006020828403121561034857600080fd5b813567ffffffffffffffff8082111561036057600080fd5b818401915084601f83011261037457600080fd5b81358181111561038657610386610320565b604051601f8201601f19908116603f011681019083821181831017156103ae576103ae610320565b816040528281528760208487010111156103c757600080fd5b826020860160208301376000928101602001929092525095945050505050565b600080604083850312156103fa57600080fd5b825191506020830151610315816102df565b60006020828403121561041e57600080fd5b5051919050565b6000825161043781846020870161027c565b9190910192915050565b80516020808301519190811015610462576000198160200360031b1b821691505b5091905056fea2646970667358221220245ee112ea4ead895870eb887edbdacb77aab57d67c55ced23759a39e30af5d464736f6c634300080d0033",
    "linkReferences": {}
  }
}