{
  "abi": [
    {
      "inputs": [
        {
          "internalType": "bytes",
          "name": "_b",
          "type": "bytes"
        }
      ],
      "name": "decodeInt",
      "outputs": [
        {
          "internalType": "uint256",
          "name": "a",
          "type": "uint256"
        }
      ],
      "stateMutability": "pure",
      "type": "function"
    },
    {
      "inputs": [
        {
          "internalType": "bytes",
          "name": "_a",
          "type": "bytes"
        }
      ],
      "name": "decodeIntBool",
      "outputs": [
        {
          "internalType": "uint256",
          "name": "i",
          "type": "uint256"
        },
        {
          "internalType": "bool",
          "name": "j",
          "type": "bool"
        }
      ],
      "stateMutability": "pure",
      "type": "function"
    },
    {
      "inputs": [
        {
          "internalType": "uint256",
          "name": "_i",
          "type": "uint256"
        }
      ],
      "name": "encodeInt",
      "outputs": [
        {
          "internalType": "bytes",
          "name": "",
          "type": "bytes"
        }
      ],
      "stateMutability": "pure",
      "type": "function"
    },
    {
      "inputs": [
        {
          "internalType": "uint256",
          "name": "_i",
          "type": "uint256"
        },
        {
          "internalType": "bool",
          "name": "_j",
          "type": "bool"
        }
      ],
      "name": "encodeIntBool",
      "outputs": [
        {
          "internalType": "bytes",
          "name": "",
          "type": "bytes"
        }
      ],
      "stateMutability": "pure",
      "type": "function"
    }
  ],
  "bytecode": {
    "object": "0x608060405234801561001057600080fd5b5061035f806100206000396000f3fe608060405234801561001057600080fd5b506004361061004c5760003560e01c806309ef9ac2146100515780631dadafe51461007a57806321fc0a5d1461008d578063582b5656146100b5575b600080fd5b61006461005f366004610175565b6100d6565b604051610071919061018e565b60405180910390f35b6100646100883660046101f4565b610101565b6100a061009b36600461023a565b610138565b60408051928352901515602083015201610071565b6100c86100c336600461023a565b610159565b604051908152602001610071565b6060816040516020016100eb91815260200190565b6040516020818303038152906040529050919050565b606082826040516020016101219291909182521515602082015260400190565b604051602081830303815290604052905092915050565b6000808280602001905181019061014f91906102eb565b9094909350915050565b60008180602001905181019061016f9190610310565b92915050565b60006020828403121561018757600080fd5b5035919050565b600060208083528351808285015260005b818110156101bb5785810183015185820160400152820161019f565b818111156101cd576000604083870101525b50601f01601f1916929092016040019392505050565b80151581146101f157600080fd5b50565b6000806040838503121561020757600080fd5b823591506020830135610219816101e3565b809150509250929050565b634e487b7160e01b600052604160045260246000fd5b60006020828403121561024c57600080fd5b813567ffffffffffffffff8082111561026457600080fd5b818401915084601f83011261027857600080fd5b81358181111561028a5761028a610224565b604051601f8201601f19908116603f011681019083821181831017156102b2576102b2610224565b816040528281528760208487010111156102cb57600080fd5b826020860160208301376000928101602001929092525095945050505050565b600080604083850312156102fe57600080fd5b825191506020830151610219816101e3565b60006020828403121561032257600080fd5b505191905056fea26469706673582212200c485c649e53cb92cc7807c11475b6813d1407bb03427e6b50f8465b17c1b82864736f6c634300080d0033",
    "linkReferences": {}
  }
}