{
  "abi": [
    {
      "inputs": [
        {
          "internalType": "string",
          "name": "_name",
          "type": "string"
        },
        {
          "internalType": "string",
          "name": "_symbol",
          "type": "string"
        },
        {
          "internalType": "uint256",
          "name": "_val",
          "type": "uint256"
        }
      ],
      "stateMutability": "nonpayable",
      "type": "constructor"
    },
    {
      "anonymous": false,
      "inputs": [
        {
          "indexed": false,
          "internalType": "string",
          "name": "",
          "type": "string"
        }
      ],
      "name": "log",
      "type": "event"
    },
    {
      "inputs": [
        {
          "internalType": "address",
          "name": "",
          "type": "address"
        },
        {
          "internalType": "address",
          "name": "",
          "type": "address"
        }
      ],
      "name": "allowances",
      "outputs": [
        {
          "internalType": "uint256",
          "name": "",
          "type": "uint256"
        }
      ],
      "stateMutability": "view",
      "type": "function"
    },
    {
      "inputs": [
        {
          "internalType": "address",
          "name": "_spender",
          "type": "address"
        },
        {
          "internalType": "uint256",
          "name": "_val",
          "type": "uint256"
        }
      ],
      "name": "approve",
      "outputs": [],
      "stateMutability": "nonpayable",
      "type": "function"
    },
    {
      "inputs": [
        {
          "internalType": "address",
          "name": "_user",
          "type": "address"
        }
      ],
      "name": "balanceOf",
      "outputs": [
        {
          "internalType": "uint256",
          "name": "",
          "type": "uint256"
        }
      ],
      "stateMutability": "view",
      "type": "function"
    },
    {
      "inputs": [
        {
          "internalType": "address",
          "name": "",
          "type": "address"
        }
      ],
      "name": "balances",
      "outputs": [
        {
          "internalType": "uint256",
          "name": "",
          "type": "uint256"
        }
      ],
      "stateMutability": "view",
      "type": "function"
    },
    {
      "inputs": [
        {
          "internalType": "uint256",
          "name": "_val",
          "type": "uint256"
        }
      ],
      "name": "burn",
      "outputs": [],
      "stateMutability": "nonpayable",
      "type": "function"
    },
    {
      "inputs": [],
      "name": "decimals",
      "outputs": [
        {
          "internalType": "uint256",
          "name": "",
          "type": "uint256"
        }
      ],
      "stateMutability": "view",
      "type": "function"
    },
    {
      "inputs": [
        {
          "internalType": "address",
          "name": "_to",
          "type": "address"
        },
        {
          "internalType": "uint256",
          "name": "_val",
          "type": "uint256"
        }
      ],
      "name": "mint",
      "outputs": [],
      "stateMutability": "nonpayable",
      "type": "function"
    },
    {
      "inputs": [],
      "name": "name",
      "outputs": [
        {
          "internalType": "string",
          "name": "",
          "type": "string"
        }
      ],
      "stateMutability": "view",
      "type": "function"
    },
    {
      "inputs": [],
      "name": "owner",
      "outputs": [
        {
          "internalType": "address",
          "name": "",
          "type": "address"
        }
      ],
      "stateMutability": "view",
      "type": "function"
    },
    {
      "inputs": [],
      "name": "symbol",
      "outputs": [
        {
          "internalType": "string",
          "name": "",
          "type": "string"
        }
      ],
      "stateMutability": "view",
      "type": "function"
    },
    {
      "inputs": [],
      "name": "totalSuppply",
      "outputs": [
        {
          "internalType": "uint256",
          "name": "",
          "type": "uint256"
        }
      ],
      "stateMutability": "view",
      "type": "function"
    },
    {
      "inputs": [
        {
          "internalType": "address",
          "name": "_dest",
          "type": "address"
        },
        {
          "internalType": "uint256",
          "name": "_val",
          "type": "uint256"
        }
      ],
      "name": "transfer",
      "outputs": [],
      "stateMutability": "nonpayable",
      "type": "function"
    },
    {
      "inputs": [
        {
          "internalType": "address",
          "name": "_owner",
          "type": "address"
        },
        {
          "internalType": "address",
          "name": "_dest",
          "type": "address"
        },
        {
          "internalType": "uint256",
          "name": "_val",
          "type": "uint256"
        }
      ],
      "name": "transferFrom",
      "outputs": [],
      "stateMutability": "nonpayable",
      "type": "function"
    }
  ],
  "bytecode": {
    "object": "0x60a06040523480156200001157600080fd5b5060405162000cf638038062000cf6833981016040819052620000349162000253565b3360805282516200004d906002906020860190620000e0565b50815162000063906003906020850190620000e0565b506200008933620000776012600a620003db565b620000839084620003f0565b62000092565b50505062000469565b6001600160a01b03821660009081526020819052604081208054839290620000bc90849062000412565b925050819055508060046000828254620000d7919062000412565b90915550505050565b828054620000ee906200042d565b90600052602060002090601f0160209004810192826200011257600085556200015d565b82601f106200012d57805160ff19168380011785556200015d565b828001600101855582156200015d579182015b828111156200015d57825182559160200191906001019062000140565b506200016b9291506200016f565b5090565b5b808211156200016b576000815560010162000170565b634e487b7160e01b600052604160045260246000fd5b600082601f830112620001ae57600080fd5b81516001600160401b0380821115620001cb57620001cb62000186565b604051601f8301601f19908116603f01168101908282118183101715620001f657620001f662000186565b816040528381526020925086838588010111156200021357600080fd5b600091505b8382101562000237578582018301518183018401529082019062000218565b83821115620002495760008385830101525b9695505050505050565b6000806000606084860312156200026957600080fd5b83516001600160401b03808211156200028157600080fd5b6200028f878388016200019c565b94506020860151915080821115620002a657600080fd5b50620002b5868287016200019c565b925050604084015190509250925092565b634e487b7160e01b600052601160045260246000fd5b600181815b808511156200031d578160001904821115620003015762000301620002c6565b808516156200030f57918102915b93841c9390800290620002e1565b509250929050565b6000826200033657506001620003d5565b816200034557506000620003d5565b81600181146200035e5760028114620003695762000389565b6001915050620003d5565b60ff8411156200037d576200037d620002c6565b50506001821b620003d5565b5060208310610133831016604e8410600b8410161715620003ae575081810a620003d5565b620003ba8383620002dc565b8060001904821115620003d157620003d1620002c6565b0290505b92915050565b6000620003e9838362000325565b9392505050565b60008160001904831182151516156200040d576200040d620002c6565b500290565b60008219821115620004285762000428620002c6565b500190565b600181811c908216806200044257607f821691505b6020821081036200046357634e487b7160e01b600052602260045260246000fd5b50919050565b60805161086a6200048c600039600081816101cf015261047e015261086a6000f3fe608060405234801561001057600080fd5b50600436106100cf5760003560e01c806342966c681161008c5780638da5cb5b116100665780638da5cb5b146101ca57806395d89b4114610209578063a9059cbb14610211578063ee8b60251461022457600080fd5b806342966c681461016357806355b6ed5c1461017657806370a08231146101a157600080fd5b806306fdde03146100d4578063095ea7b3146100f257806323b872dd1461010757806327e235e31461011a578063313ce5671461014857806340c10f1914610150575b600080fd5b6100dc61022d565b6040516100e99190610644565b60405180910390f35b6101056101003660046106b5565b6102bb565b005b6101056101153660046106df565b610333565b61013a61012836600461071b565b60006020819052908152604090205481565b6040519081526020016100e9565b61013a601281565b61010561015e3660046106b5565b610473565b61010561017136600461073d565b6104e6565b61013a610184366004610756565b600160209081526000928352604080842090915290825290205481565b61013a6101af36600461071b565b6001600160a01b031660009081526020819052604090205490565b6101f17f000000000000000000000000000000000000000000000000000000000000000081565b6040516001600160a01b0390911681526020016100e9565b6100dc6104f3565b61010561021f3660046106b5565b610500565b61013a60045481565b6002805461023a90610789565b80601f016020809104026020016040519081016040528092919081815260200182805461026690610789565b80156102b35780601f10610288576101008083540402835291602001916102b3565b820191906000526020600020905b81548152906001019060200180831161029657829003601f168201915b505050505081565b3360008181526020819052604090205482908111156102f55760405162461bcd60e51b81526004016102ec906107c3565b60405180910390fd5b3360009081526001602090815260408083206001600160a01b038816845290915281208054859290610328908490610805565b909155505050505050565b6001600160a01b0383166000908152602081905260409020548390829081111561036f5760405162461bcd60e51b81526004016102ec906107c3565b6001600160a01b03851660009081526001602090815260408083203384529091529020548311156103da5760405162461bcd60e51b81526020600482015260156024820152746e6f7420656e6f75676820616c6c6f77616e63657360581b60448201526064016102ec565b6001600160a01b0385166000908152602081905260408120805485929061040290849061081d565b90915550506001600160a01b0384166000908152602081905260408120805485929061042f908490610805565b90915550506001600160a01b03851660009081526001602090815260408083203384529091528120805485929061046790849061081d565b90915550505050505050565b336001600160a01b037f000000000000000000000000000000000000000000000000000000000000000016146104d85760405162461bcd60e51b815260206004820152600a60248201526937b7363c9037bbb732b960b11b60448201526064016102ec565b6104e2828261057d565b5050565b6104f033826105c7565b50565b6003805461023a90610789565b3360008181526020819052604090205482908111156105315760405162461bcd60e51b81526004016102ec906107c3565b336000908152602081905260408120805485929061055090849061081d565b90915550506001600160a01b03841660009081526020819052604081208054859290610328908490610805565b6001600160a01b038216600090815260208190526040812080548392906105a5908490610805565b9250508190555080600460008282546105be9190610805565b90915550505050565b6001600160a01b038216600090815260208190526040902054829082908111156106035760405162461bcd60e51b81526004016102ec906107c3565b6001600160a01b0384166000908152602081905260408120805485929061062b90849061081d565b925050819055508260046000828254610328919061081d565b600060208083528351808285015260005b8181101561067157858101830151858201604001528201610655565b81811115610683576000604083870101525b50601f01601f1916929092016040019392505050565b80356001600160a01b03811681146106b057600080fd5b919050565b600080604083850312156106c857600080fd5b6106d183610699565b946020939093013593505050565b6000806000606084860312156106f457600080fd5b6106fd84610699565b925061070b60208501610699565b9150604084013590509250925092565b60006020828403121561072d57600080fd5b61073682610699565b9392505050565b60006020828403121561074f57600080fd5b5035919050565b6000806040838503121561076957600080fd5b61077283610699565b915061078060208401610699565b90509250929050565b600181811c9082168061079d57607f821691505b6020821081036107bd57634e487b7160e01b600052602260045260246000fd5b50919050565b6020808252601290820152716e6f7420656e6f7567682062616c616e636560701b604082015260600190565b634e487b7160e01b600052601160045260246000fd5b60008219821115610818576108186107ef565b500190565b60008282101561082f5761082f6107ef565b50039056fea264697066735822122056496f795eed4c9ed8104575a24b14bf8af8cfd4190f7d9bd4104b045a777d9864736f6c634300080d0033",
    "linkReferences": {}
  }
}